S00E0000752D626F6F742E73726563C0
S31580800000B80000EA14F09FE514F09FE514F09FE5B0
S3158080001014F09FE514F09FE514F09FE514F09FE5BA
S3158080002060008080C0008080200180808001808008
S31580800030E001808040028080A0028080EFBEADDEBD
S31580800040DEC0AD0B00F020E300F020E300F020E37B
S3158080005000F020E300F020E300F020E300F020E3CE
S3158080006028D01FE500E08DE500E04FE104E08DE5D6
S3158080007013D0A0E30DF069E10FE0A0E10EF0B0E1CE
S3158080008048D04DE2FF1F8DE850201FE50C0092E896
S3158080009048008DE234508DE20E10A0E10F0085E895
S315808000A00D00A0E1190700FA00F020E300F020E3BC
S315808000B000F020E300F020E300F020E300F020E36E
S315808000C004D04DE200008DE590001FE500E080E5DC
S315808000D000E04FE104E080E500E090E500009DE5EA
S315808000E004D08DE248D04DE2FF1F8DE8B4201FE515
S315808000F00C0092E848008DE234508DE20E10A0E12B
S315808001000F0085E80D00A0E10A0700FA00F020E3E1
S3158080011000F020E300F020E300F020E300F020E30D
S31580800120E8D01FE500E08DE500E04FE104E08DE555
S3158080013013D0A0E30DF069E10FE0A0E10EF0B0E10D
S3158080014048D04DE2FF1F8DE810211FE50C0092E814
S3158080015048008DE234508DE20E10A0E10F0085E8D4
S315808001600D00A0E1FD0600FA00F020E300F020E318
S3158080017000F020E300F020E300F020E300F020E3AD
S3158080018048D11FE500E08DE500E04FE104E08DE594
S3158080019013D0A0E30DF069E10FE0A0E10EF0B0E1AD
S315808001A048D04DE2FF1F8DE870211FE50C0092E854
S315808001B048008DE234508DE20E10A0E10F0085E874
S315808001C00D00A0E1EF0600FA00F020E300F020E3C6
S315808001D000F020E300F020E300F020E300F020E34D
S315808001E0A8D11FE500E08DE500E04FE104E08DE5D4
S315808001F013D0A0E30DF069E10FE0A0E10EF0B0E14D
S3158080020048D04DE2FF1F8DE8D0211FE50C0092E893
S3158080021048008DE234508DE20E10A0E10F0085E813
S315808002200D00A0E1E10600FA00F020E300F020E373
S3158080023000F020E300F020E300F020E300F020E3EC
S3158080024008D21FE500E08DE500E04FE104E08DE512
S3158080025013D0A0E30DF069E10FE0A0E10EF0B0E1EC
S3158080026048D04DE2FF1F8DE830221FE50C0092E8D2
S3158080027048008DE234508DE20E10A0E10F0085E8B3
S315808002800D00A0E1DD0600FA00F020E300F020E317
S3158080029000F020E300F020E300F020E300F020E38C
S315808002A068D21FE500E08DE500E04FE104E08DE552
S315808002B013D0A0E30DF069E10FE0A0E10EF0B0E18C
S315808002C048D04DE2FF1F8DE890221FE50C0092E812
S315808002D048008DE234508DE20E10A0E10F0085E853
S315808002E00D00A0E1BB0600FAF10700EA00000FE1ED
S315808002F01F1000E21A0031E31F00C0131300801321
S31580800300C00080E300F029E1100F11EE020AC0E3FD
S31580800310100F01EE8C009FE5100F0CEE350400EB7C
S31580800320150F07EE4FF07FF56FF07FF51EFF2FE1FB
S31580800330EDFFFFEA0000A0E3170F08EE150F07EE2A
S31580800340D50F07EE4FF07FF56FF07FF5100F11EE2A
S31580800350020AC0E30700C0E3020080E3020B80E369
S31580800360010A80E3100F01EE0E50A0E1101F10EEFF
S31580800370213AA0E10F3003E20F4001E20322A0E19F
S31580800380022084E120009FE50700C0E300D0A0E141
S31580800390300F11EE400080E33E002DE90D0400FB16
S315808003A03E00BDE805F0A0E10000808000FF30407F
S315808003B070470148704700BF03000080004870473F
S315808003C00300008000487047030000800048704723
S315808003D00300008000487047030000800048704713
S315808003E00300008000487047030000802DE9F041BB
S315808003F01B4A136883B389B30D6835B910F0010F32
S31580800400184818BF0020BDE8F0814FF0000C674681
S31580800410D2F804E0D2F80880BE4501D11248F2E7CE
S31580800420D3E90260B5427CEB000212D3D3E906247D
S31580800430240344EA12541203921940EB0400954235
S315808004407CEB000005D21B6900202B449B1B0B6034
S31580800450D9E701374344DFE70448D4E70148D2E748
S31580800460C00C8080020000800E0000800300008027
S3158080047010B5044600202146E268206100F0B2FB78
S31580800480206110BD01380A44914200D1704711F82D
S31580800490013B00F8013FF7E70448054B10300364C1
S315808004A0044B8361044BC361FFF7E2BFC00C80803D
S315808004B0B1038080B3038080BD0380802DE9F04DB9
S315808004C006460C462B4DDFF8B0802C4F454505D32C
S315808004D02B4B1E60BDE8F04D00F042BED9F8383017
S315808004E0D5F800A003F1FF4C0AEB0C005CB1254BDC
S315808004F0984202D3343398421FD9234B98421CD0DA
S31580800500043B984219D02A79172A11D11C4B5AF864
S315808005100C201B68F31A13448CB900F143014AF806
S315808005200C3021F03F0120F03F0000F047FE04E0D0
S3158080053000233946154858F0EFFF0835C6E7002274
S31580800540D4E904BE5B4572EB0E020DD3D4E9061264
S31580800550120342EA1152090311EB0B014EEB020E94
S3158080056099427EF1000ED8D202463946084858F024
S31580800570D3FFE2E7A8248880982588805A0B8680D6
S3158080058038F28780E80C80805C0C8080F00B8080DD
S31580800590120C808030B5042585B0029500251446DE
S315808005A00195089D009500F049F90CB12378236068
S315808005B005B030BD042300F0F1B80000F0B50446E4
S315808005C0154600F11F0600F10F0201200139B24263
S315808005D000D078B904F120010A4631F8026B18B14F
S315808005E02888871B784278417EB12A88002AF3D072
S315808005F00235F1E712F8010F11F8017FA0EB070CA5
S31580800600DCF1000040EB0C00E1E72BB121680A4465
S31580800610093222F007021A6008B1014B1C60F0BDD6
S31580800620280D808010B5044C0020211DFFF7DEFE4A
S315808006300023236010BD00BF280D808010B504463E
S3158080064050B14FF0FF31203000F04FFA246804EB30
S315808006504004293424F0070010BD18232DE9F34D7A
S31580800660264D9346AB616B680F461A69044603F143
S31580800670180603EB020808B100F1180A46450BD329
S31580800680AA693B6834BB1E481E499A4288BF084681
S315808006903A6002B0BDE8F08D3046FFF7CFFF7368D1
S315808006A002463BEA030306EB000301D01E46E5E7DC
S315808006B0A8691044A861002CF8D039688842F5D89A
S315808006C050463146CDE90023FFF7DCFE009A019B38
S315808006D09244EBE79A420ED8183A04F1180100202A
S315808006E000F080FA1822E86107492046FFF7CAFEA3
S315808006F00020AA69CCE70348CAE700BF280D80801E
S315808007000200008005000080300D80802DE9F7454D
S31580800710214C154663680A881E6980460F461E44AA
S3158080072062B925B90024204603B0BDE8F085183328
S31580800730B3422B60F6D300242C60F4E7206868B13E
S315808007400A462B464146FFF739FF38B125B12B68DB
S31580800750B34224BF00232B602468E4E7646818349E
S31580800760A64215D94FF0000A01AB3A46414620464B
S31580800770FFF724FF019BB34228BFCDF804A020B1A8
S31580800780002DD0D0019B2B60CDE7019C002CEBD136
S31580800790002DD0D1C6E700BF280D80802DE9F34D8E
S315808007A00E4617461C460546B8B3B1B3AAB3296828
S315808007B030464FEA5108414600F097F940452CD0A3
S315808007C03146384601AAFFF7A1FF08B9338823BB93
S315808007D0DDF80480B8F1000F24D008F120010A46A4
S315808007E032F802ABBAF1000FFAD1D5F800B0521ABE
S315808007F05A452A6018D83046FFF744FE102238467C
S3158080080008EB0201FFF73EFE44B1D8F8043034EAA3
S3158080081003030BD0C5F800B0C9E7054C204602B06B
S31580800820BDE8F08D034CF9E7034CF7E75446F5E7CE
S31580800830020000800E000080050000802DE9F04DCA
S315808008400646DDE9088A084617461D46DDF828B043
S3158080085016B92248BDE8F08D0029FAD0002BF8D051
S3158080086000223146FFF752FF0446002831D0BBF183
S31580800870000F03D043683BEA03032AD10FB1636834
S315808008803B60BAF1000F03D0D4E90223CAE9002382
S315808008904FF0FF323046124900F016F930B92946BA
S315808008A04046BDE8F04D0122FFF7D7BE2B6822680F
S315808008B09A422A600FD8B8F1000FCAD004F120017D
S315808008C031F8024B002CFBD14046FFF7DBFD2046FA
S315808008D0C0E70448BEE70448BCE700BF020000804A
S315808008E03E0C80800E00008005000080F8B518B32D
S315808008F0124C21686668814228BF0021336928BFEF
S315808009002160F21800F1200131F8025B002DFBD1C5
S31580800910076803440737394421F007015B1A521A66
S315808009203361FFF7AFFD64682846226904F11801B8
S31580800930183A00F057F96061F8BD00BF280D8080B5
S315808009402DE9FF4DDFF8A8A08B46DAF804604FF0DA
S31580800950FF311D46D6F810800392019000F0C5F8CD
S3158080096006EB080707F12003441C6200DAF80410BE
S3158080097003EB440402930D9B0092591A2944214427
S31580800980B1F5003F32D8DDE91001039A7A60EA1822
S3158080099046F808201022C7E90201B8185946FFF7A1
S315808009A071FD029B009A18460199FFF76BFD2A46D6
S315808009B020460C99FFF766FD60190D9A0E99FFF710
S315808009C061FD56F80820DAF804500732224422F076
S315808009D00702521B2A610020183A05F1180100F09F
S315808009E001F96861002004B0BDE8F08D0148FAE71E
S315808009F0280D808009000080074B00215B6818697C
S31580800A0000F12003B3F5003F36BFC0F5FF300020EC
S31580800A1000F5F070704700BF280D808000487047D1
S31580800A20030000801FB500240294079C0194069CD5
S31580800A300094FFF703FF04B010BD0023FFF7AEBE1E
S31580800A4070B516461D4601B3FAB1F3B1E8B1C30657
S31580800A5019D410F0FF0316D0012B16D000F00603B0
S31580800A60042B12D030F0FF040FD10023084AC1E94D
S31580800A700023FFF7C1FF0023064AC6E90001C5E9C6
S31580800A800023204670BD044CFBE7044CF9E700BF89
S31580800A90E8FF0100C8FF010003000080020000809B
S31580800AA010F0040F10B405D010F0B00F05D110BC33
S31580800AB0FFF7C6BF024810BC70470248FBE700BFFD
S31580800AC0020000800300008070B505460024A242A3
S31580800AD001D1002008E035F8146031F81430F01A1E
S31580800AE002D10134002EF2D170BD034600208842A7
S31580800AF002D033F8102002B970470130F7E7000042
S31580800B00F0B5364B1C6814B300274FF0004C3C463A
S31580800B101E1D16F8015B01342CFA05F50E2C47EA6A
S31580800B200507F6D10026DFF8B8C03446082504F0DC
S31580800B30010E6408BEF1000F00D07C40013DF6D1E5
S31580800B400136B6F5807F4CF8044BEED11D608D075B
S31580800B500ED06AB111F8014B013A84EA0004E4B2FE
S31580800B6003EB8404646984EA102001D08C07F1D178
S31580800B700E4602F0030422F003025718B74211D1C1
S31580800B80043A11446CB1E21CCD1C114415F8012F36
S31580800B904240D2B203EB820252698D4282EA1020B1
S31580800BA0F4D1F0BD56F8045B6840C5B203EB850589
S31580800BB06D6985EA1025E8B203EB8000406980EA9A
S31580800BC01520C5B203EB85056D6985EA1025E8B2E7
S31580800BD003EB8000406980EA1520CFE7480D80804E
S31580800BE05C0D808008B5C043FFF78AFFC04308BD8F
S31580800BF025733A20556E6B6E6F776E2072656C6F3B
S31580800C00636174696F6E207479706520256C6C78E9
S31580800C100A0025733A2052656C6F636174696F6EC2
S31580800C20206174202570206973206F7574206F66AB
S31580800C302072616E67652028256C78290A005600A7
S31580800C406100720054006F00460069006C00650088
S31580800C500000000000000000580C8080580C8080C6
S31580800C604942492053595354640002004800000089
S31580800C700000000000000000A80C8080000724206F
S31580800C80000000000000000000000000000000005E
S31580800C900000000000000000D00C80800000000072
S31580800CA00000000000000000440061007300200006
S31580800CB055002D0042006F006F0074000000000018
S31580800CC0000000000000000000000000000000001E
S31580800CD052554E54534552566400020050000000CF
S31580800CE000000000000000009DB4848089B4848068
S31580800CF0C5038080C5038080E9B48480ED038080CD
S31580800D00EBB984805DBA848021BA8480C503808073
S31580800D1041B48480CD038080D50380807DBA8480F1
S31580800D20200D8080200D8080000000000000000063
S31580800D30000000000000000055624566695661012A
S31580800D400000000000000000010000000001020495
S31580800D500507080A0B0C1016171A00000000000001
S31580800D60000000000000000000000000000000007D
S31580800D70000000000000000000000000000000006D
S31580800D80000000000000000000000000000000005D
S31580800D90000000000000000000000000000000004D
S3098080115CFFFFFFFF8D
S31580801160002307EE153F07EED53FBFF34F8FBFF3C2
S315808011706F8F704770477047704708B500F0AAE850
S31580801180BDE80840FFF7F8BF704708B500F0F8E87B
S31580801190BDE80840FFF7F8BF08B5FFF7EBFFFFF71C
S315808011A0F4FF002308EE173F08EE163F08EE153F42
S315808011B0BFF34F8FBFF36F8F08BD704738B5044636
S315808011C00D4600F047FE30EE103F012203F0070304
S315808011D004339A40534223409D4207D8BFF34F8FB2
S315808011E029462046BDE83840FFF7E7BF07EE3E3FF9
S315808011F01344F1E7704770B504460D4600F02AFE29
S3158080120030EE106F2946204600F024FE38B1012248
S31580801210234606F007060436B2409D4207D8BFF3C0
S315808012204F8F29462046BDE87040FFF7E3BF07EE23
S31580801230363F1344F1E700005FF07FF5300F30EEE4
S31580801240A03BA0E10E3013E21C00000A00A0A0E3C0
S31580801250AA208AE03012A0E1071001E2020051E361
S31580801260130000BA10AF40EE6FF07FF5101F30EE9E
S31580801270072001E2042082E2FF4300E3A14114E0DB
S31580801280145F6FE1FF7F07E3A17617E00790A0E107
S315808012901465A0E106B08AE11962A0E106B08BE10F
S315808012A05EBF07EE019059E2F8FFFFAA014054E243
S315808012B0F5FFFFAA02A08AE20A0053E1E3FFFFCA94
S315808012C000A0A0E310AF40EE4EF07FF56FF07FF583
S315808012D01EFF2FE1F04E2DE9D6FFFFEBF04EBDE8E5
S315808012E01EFF2FE15FF07FF5300F30EEA03BA0E14F
S315808012F00E3013E21C00000A00A0A0E3AA208AE038
S315808013003012A0E1071001E2020051E3130000BA17
S3158080131010AF40EE6FF07FF5101F30EE072001E2B0
S31580801320042082E2FF4300E3A14114E0145F6FE171
S31580801330FF7F07E3A17617E00790A0E11465A0E11F
S3158080134006B08AE11962A0E106B08BE156BF07EE4E
S31580801350019059E2F8FFFFAA014054E2F5FFFFAA07
S3158080136002A08AE20A0053E1E3FFFFCA00A0A0E35D
S3158080137010AF40EE4EF07FF56FF07FF51EFF2FE1C8
S31580801380F04E2DE9D6FFFFEBF04EBDE81EFF2FE134
S31580801390704710B5044600F0F0FBE3070DD500F0EA
S315808013A0E2FDFFF7E8FEFFF7F0FE00F08EFDFFF727
S315808013B0D7FEFFF7EDFF002010BD00F086FDFFF71A
S315808013C0CFFEFFF7DAFEFFF7CBFE00F075FDF0E784
S315808013D00320FFF7DEBF5BF0F7BA01EE300F704770
S315808013E00138FDD170470000100F11EE0200C0E376
S315808013F0100F01EE1EFF2FE178009FE50700C0E306
S3158080140000D0A0E1305800FA00D0A0E10090A0E1A1
S315808014102F5800FB0000A0E3396100FA480099E567
S315808014200700C0E300D0A0E1509099E50CE08FE200
S315808014304C0099E500E08EE0380099E51F0000EACF
S315808014401B0000EBB5FBFFEB2C009FE52C309FE566
S315808014500010A0E3002053E0C00000FAB96000FBD2
S31580801460B96000FA0900A0E1381099E510E09FE59F
S315808014701EFF2FE108ECFFFF00FF30409825888013
S31580801480E8D88880CD9A81800DC0A0E1F05F80E821
S315808014900000A0E31EFF2FE1F05F90E80CD0A0E172
S315808014A00100A0E1000050E30000001A0100A0E3E3
S315808014B01EFF2FE1380099E5100F0CEE1EFF2FE1FD
S315808014C008304FE264109FE5031081E0014050E0D0
S315808014D01500000A54109FE5031081E050209FE597
S315808014E0032082E0000CB1E8000CA0E8020051E104
S315808014F0FBFFFF3A3C109FE5032081E038109FE593
S31580801500033081E00300B2E8FF1001E2170051E367
S315808015100300001A040080E0001090E5041081E04A
S31580801520001080E5030052E1F5FFFF3A1EFF2FE1B0
S3158080153040EBFFFFD8100800D8100800981F0900DC
S31580801540F0B591B06D4608AC294622460026D9F87A
S31580801550003003F1200CDF6B0833C5E900769F6B82
S315808015606345C4E9007605F1080504F10804F2D1E3
S31580801570042306F023FA11B0F0BD704773B5D9F80D
S31580801580003005465B6BD0F894601A480C46019310
S315808015903AF01CFB48B1102101AA58F074F8002853
S315808015A022DB0199144857F0B7FFFFF7E6FF134B0C
S315808015B0134904F40074002C08BF1946114857F06B
S315808015C0ABFF4FF48C4021F05BF94FF4C06021F083
S315808015D057F9FFF7FDFED5F8A4303BB1D5F8A020AA
S315808015E014B920460199B04702B070BDD9F8003051
S315808015F09A6BF5E74E1F8680551F86806589878022
S31580801600371F86807A1F86807047000010B5044613
S3158080161009483AF0DBFAD4F8A43033B1204603F097
S3158080162085FB20B1054857F023FA0548FBE720461D
S31580801630BDE81040FFF7E8BFFA668680931F8680F4
S31580801640A81F8680F8B510F0C00704460D6914D1AE
S3158080165010F4807605D02846FFF7D8FF3E46304680
S31580801660F8BD10F4C06F04D021462846FFF786FF68
S31580801670F5E72846FFF7CAFFF6E74FF0FF36EEE735
S3158080168010B50446D0F8A00060B108494CF02EFB16
S31580801690002807DDD4F8A000FFF752FF10B1044878
S315808016A01AF039FEBDE81040FFF792BECF1F8680C4
S315808016B0D71F8680D0F89430D0F8A00018470000D5
S315808016C010B590F8254090F8243043EA042390F8AA
S315808016D0264043EA044390F8274043EA0463184C43
S315808016E0A34207D0174CA34204D017481AF013FEA2
S315808016F0012010BD90F8294090F8283043EA0423D1
S3158080170090F82A4043EA044390F82B4043EA0463E6
S315808017100B6090F82D4090F82C3043EA042390F8A3
S315808017202E4043EA044390F82F4043EA04631360D3
S315808017300A680146054857F0EFFE0020D9E700BFCA
S3158080174018286F01626F7800BC2F8680D02F8680A4
S315808017500000000000000000000000000000000083
S3158080176010F0030384463DD141EA012141EA0141DB
S315808017700B46102A1FDB2DE9004188468E46403A6B
S31580801780A1BFACE80A41ACE80A41ACE80A41ACE8C2
S315808017900A41F4DC08BFBDE8008112F0200F1CBF2F
S315808017A0ACE80A41ACE80A4112F0100F18BFACE8E9
S315808017B00A41BDE8004112F0080F18BFACE80A0064
S315808017C012F0040F18BF4CF8041B12F0020F1CBFD6
S315808017D00CF8011B0CF8011B12F0010F18BF0CF8D6
S315808017E0011B7047043AF0DB022BB8BF0CF8011B53
S315808017F0D8BF0CF8011B0CF8011B1A44B4E700BF54
S31580801800884208BF70472DE91140043A4BDB10F0BF
S31580801810030C91F800F05AD111F0030C71D11C3A67
S315808018202DE9E00114DB91F800F0603A91F81CF024
S3158080183005DB91F83CF091F85CF091F87CF0B1E8AA
S31580801840F851203AA0E8F851F7DA12F1600FF6DA0B
S3158080185012F01C0CCCF1200C18BFE74421E0AFF3CA
S31580801860008051F8043B51F8044B51F8045B51F8E1
S31580801870046B51F8047B51F8048B51F804EBE744F0
S3158080188000BFAFF3008040F8043B40F8044B40F83B
S31580801890045B40F8046B40F8047B40F8048B40F886
S315808018A004EBBDE8E001D20718BF11F8013B24BFE5
S315808018B011F8014B11F801CB18BF00F8013B24BF0A
S315808018C000F8014B00F801CBBDE811407047CCF1A0
S315808018D0040CBCF1020FC8BF11F8013BA8BF11F8F8
S315808018E0014B11F801EBC8BF00F8013BA8BF00F897
S315808018F0014BB2EB0C0200F801EBD4DB11F0030C48
S315808019008DD021F00301BCF1020F51F804EB4ED04B
S3158080191000F39A801C3A39DB2DE9E00391F800F0D8
S31580801920603A91F81CF005DB91F83CF091F85CF018
S3158080193091F87CF0F0C94FEA1E23203AB1E8005333
S3158080194043EA04634FEA142444EA05644FEA152582
S3158080195045EA06654FEA162646EA07664FEA17275E
S3158080196047EA08674FEA182848EA09684FEA19293A
S3158080197049EA0C694FEA1C2C4CEA0E6CA0E8F813F5
S31580801980D6DA12F1600FD5DABDE8E00312F01C0CCE
S315808019900AD04FEA1E2351F804EBBCF1040C43EACB
S315808019A00E6340F8043BF4DCA1F103017BE71C3A2B
S315808019B039DB2DE9E00391F800F0603A91F81CF06C
S315808019C005DB91F83CF091F85CF091F87CF0F0C9F9
S315808019D04FEA1E43203AB1E8005343EA04434FEA74
S315808019E0144444EA05444FEA154545EA06454FEADC
S315808019F0164646EA07464FEA174747EA08474FEAB8
S31580801A00184848EA09484FEA194949EA0C494FEA91
S31580801A101C4C4CEA0E4CA0E8F813D6DA12F1600F13
S31580801A20D5DABDE8E00312F01C0C0AD04FEA1E43DB
S31580801A3051F804EBBCF1040C43EA0E4340F8043BB6
S31580801A40F4DCA1F102012EE71C3A39DB2DE9E003B3
S31580801A5091F800F0603A91F81CF005DB91F83CF043
S31580801A6091F85CF091F87CF0F0C94FEA1E63203AD9
S31580801A70B1E8005343EA04234FEA146444EA052418
S31580801A804FEA156545EA06254FEA166646EA072631
S31580801A904FEA176747EA08274FEA186848EA09280D
S31580801AA04FEA196949EA0C294FEA1C6C4CEA0E2CDC
S31580801AB0A0E8F813D6DA12F1600FD5DABDE8E00334
S31580801AC012F01C0C0AD04FEA1E6351F804EBBCF16D
S31580801AD0040C43EA0E2340F8043BF4DCA1F10101B7
S31580801AE0E1E600BF0020704708B5D9F800300E487F
S31580801AF0596B09F089F90D48D9F8D01009F084F925
S31580801B000B48D9F8441009F07FF90A48D9F848106B
S31580801B1009F07AF9BDE808404FF40052D9F8B01040
S31580801B20054857F0F9BC00BFB0158680BC15868005
S31580801B30C5158680CC158680D6158680D9F84820AE
S31580801B400020C9F84420D9F84820103AC9F848209E
S31580801B5070474FF480436946D9F8342055F072BE79
S31580801B6048F012BDD9F84430024A08330020136009
S31580801B70704700BF4000808070470020704700001B
S31580801B8008B5014856F074FF931686802DE9F04596
S31580801B900446A3B080224D4902A8FFF731FEA26B8E
S31580801BA0E16B4B48256C57F0B7FCD9F8042005F0DB
S31580801BB07046D2070AD5D9F84C10A06BD9F84C203C
S31580801BC0E36B821A591A434857F0A6FCE36A226B64
S31580801BD0616B414857F0A0FC236A626AA16A3F48DC
S31580801BE057F09AFC23693E4800936369A269E1694C
S31580801BF057F092FC23683B480093E1686368A2684B
S31580801C0057F08AFC002EB4BF4E216E2115F0804F8E
S31580801C1014BF5A227A2215F0005F14BF43236323B0
S31580801C2015F0805F14BF5620762000902E4857F09E
S31580801C3073FC236C2D4A2E4813F0800F14BF014607
S31580801C40114613F0400F18BF024622AD03F01F00E5
S31580801C5005EB8000274D13F0200F274B08BF2B46BE
S31580801C60009350F8803C254857F056FC276CE56BEE
S31580801C7017F0200716D1082625F0030515E035F8DC
S31580801C801420002C0CBF40465046314657F044FC09
S31580801C90013413E0022CF2D1194823B0BDE8F04517
S31580801CA057F03ABC042625F00105164857F034FCD7
S31580801CB06FF00304DFF85080DFF850A0002FE9D161
S31580801CC0002CE9DC55F82420DBE700BF70CE8580C8
S31580801CD038198780321987805A1987807E1987803C
S31580801CE0A2198780D2198780021A8780D0738780CD
S31580801CF014178680658987801F198780121A878046
S31580801D00C8048780311A8780241987802C19878018
S31580801D10044608B543F062F9064857F0FDFBE36B4D
S31580801D202046043BE363FFF731FFE06BFFF718FF44
S31580801D30FFF726FFF88B8680044608B543F04EF978
S31580801D40064857F0E9FBE36B2046043BE363FFF7E5
S31580801D501DFFE06BFFF704FFFFF712FF298886805F
S31580801D60044608B543F03AF9064857F0D5FBE36B4D
S31580801D702046083BE363FFF709FFE06BFFF7F0FE41
S31580801D80FFF7FEFE03878680044608B543F026F972
S31580801D90064857F0C1FBE36B2046083BE363FFF7B9
S31580801DA0F5FEE06BFFF7DCFEFFF7EAFE7D68868056
S31580801DB0044608B543F012F9064857F0ADFBE36B4D
S31580801DC02046083BE363FFF7E1FEE06BFFF7C8FE42
S31580801DD0FFF7D6FE30868680044608B543F0FEF847
S31580801DE0064857F099FBE36B2046083BE363FFF791
S31580801DF0CDFEE06BFFF7B4FEFFF7C2FE34728680BD
S31580801E00044608B543F0EAF8064857F085FBE36B4D
S31580801E102046083BE363FFF7B9FEE06BFFF7A0FE41
S31580801E20FFF7AEFE397286807047000008B5064897
S31580801E301AF071FA1AF08AFAFFF79FFEFFF7F4FF1D
S31580801E4000F004FA002008BDF18786800144FFF700
S31580801E50B5B9000008B540EA01039B060A4605D05D
S31580801E600146034857F058FB002008BD0120FCE757
S31580801E700D3086804FF48042C9F8D420D9F8D410AA
S31580801E80D9F838200020521AC9F83820D9F8382055
S31580801E90120C1204C9F83820D9F83820C9F8D02015
S31580801EA07047FFF7E7BFD9F8D03041EA005141F457
S31580801EB0406143F82010704711EE103F43F4805301
S31580801EC001EE103FBFF36F8F704711EE103F11EE1A
S31580801ED0103F23F4805301EE103FBFF36F8F70471E
S31580801EE011EE100FC0F30030704710B511EE104F11
S31580801EF014F001042ED1FFF74FF9204612210134C8
S31580801F00FFF7D1FFB4F5805FF7D1002000F0BEF9EE
S31580801F10012000F0BBF9022000F0B8F9032000F020
S31580801F20B5F9002302EE503FD9F8D03023F47F53A1
S31580801F3023F03F0343F0590302EE103F4FF05533B1
S31580801F4003EE103F11EE103F43F0010301EE103F88
S31580801F50BFF36F8F11EE103F43F0040301EE103F05
S31580801F60BFF36F8F10BD10B511EE103F5B0709D59B
S31580801F7011EE104FFFF701F924F0050401EE104FA2
S31580801F80BFF36F8F10BD11EE100FC0F380007047C6
S31580801F902DE9F04116460C4600F5C675011F50B1F5
S31580801FA051F8042F3AB113688D4223F0030343F02E
S31580801FB002031360F3D1DFF84080251F04F5C677CE
S31580801FC0A4B155F8041F89B10B6823F0030343F04D
S31580801FD002030B6046B1094B0A68BFF35F8F013BF2
S31580801FE006D1404657F098FAAF42E9D1BDE8F081F4
S31580801FF0D203F1D4F8E700BF3C6A868040420F0066
S315808020002DE9F84504460D461746DFF85CA00E1F7D
S3158080201001F5C678A5B156F8041F89B10B6823F0FF
S3158080202003030B6057B1114B0A68BFF35F8F013B87
S31580802030C2F3014015D1504657F06EFA4645E9D134
S31580802040211F04F5C67054B151F8042F3AB1136834
S31580802050814223F0030343F001031360F3D1BDE88B
S31580802060F8850328E0D1E9E7E268868040420F0060
S31580802070034BD3F80006BFF35F8F000F704700BF16
S315808020800000E144034BD3F80006BFF35F8FC0F3B3
S315808020900F3070470000E14438B5FFF7F3FF4BF609
S315808020A04413984223D04BF68C13984222D04BF619
S315808020B01E01144C144B154A884208BF1C46FFF7F4
S315808020C0D7FF022819D8FFF7D3FF52F8205000F0A7
S315808020D0C7F8032813D800F0C3F80D4B53F8202097
S315808020E02B4621460B4857F017FA002038BD074A01
S315808020F0094CE4E7094A0A4CE1E70A4DE7E7094AD1
S31580802100EEE700BF860B8780780B8780609C878010
S3158080211044D58580970B8780710B87806C9C878060
S315808021207F0B8780627B868008B500F025F800204B
S3158080213008BD4FF0804108B54FF000401BF0BFFAD4
S31580802140C9F83C00002008BD4FF00041D9F8002036
S315808021500020D163D9F80020D9F83C3013647047C9
S3158080216013B5472001A920F093FE044608B933F0C1
S315808021706BFF204602B010BD024B034A1B681A6073
S31580802180704700BF789C8780B0D0858037B561F0F6
S315808021907F038DF804308DF80520022301AA0D4631
S315808021A023F015FE044618B12946034857F0B4F942
S315808021B0204603B030BD00BFCE31868073B50546DC
S315808021C000200122652101AB019023F0DFFE0446C9
S315808021D030B165211B4857F09FF9204602B070BD0B
S315808021E0019E02468021304623F075FE10B1164846
S315808021F057F092F98021304623F060FE0028B8BFE0
S3158080220000232A68A4BFC3B200209342E6D1052169
S315808022102A790198FFF7BAFF0028DFD114212A7A1C
S315808022200198FFF7B3FF0028D8D116212A7B019821
S31580802230FFF7ACFF0028D1D117212A7C0198FFF7C0
S31580802240A5FFCBE7B4148780EA148780BFF35F8FBE
S315808022500122024BC3F8002F704700BF0000E04484
S31580802260044B1B681B681B681868BFF35F8FC0F3BD
S3158080227002207047789C878008B5FFF731FE08B9C1
S31580802280FFF71AFEBDE80840FFF72FBE38B5D9F8AC
S31580802290003003EBC000056CC46B2D0D05EB145527
S315808022A0240DA54200D838BD20460E21FFF7FBFDC0
S315808022B00134F6E754109FE5000081E50AF8FFEACD
S315808022C0F05F2DE900C0A0E10100A0E14FF07FF52D
S315808022D05FF07FF5700060E1F09FBDE8F05F2DE9EB
S315808022E0FF60A0E300C0A0E34FF07FF55FF07FF54D
S315808022F0700060E1040000EA00F020E3FEC0A0E305
S315808023004FF07FF55FF07FF5700060E1F09FBDE86C
S3158080231024B43040F8B506460D4617461C46BFF3B2
S315808023205F8F00234FF47A708B61FFF759F833689B
S31580802330BFF35F8F2B607368BFF35F8F6B60B3680B
S31580802340BFF35F8FAB60F368BFF35F8FEB603369FA
S31580802350BFF35F8F2B617369BFF35F8F2402C7F3EF
S31580802360056704F470643C436B6144F04004BFF3BA
S315808023705F8F4FF4FA60AC61BDE8F840FFF730B804
S3158080238070B50646104D88B001AC0FCD0FC495E868
S315808023900700022E84E807000C4B09D119684FF09C
S315808023A000620F23603101A8FFF7B4FF08B070BDCB
S315808023B0BFF35F8F00224FF47A701B689A6708B0EC
S315808023C0BDE87040FFF70CB8F0CE85807C9C878016
S315808023D0BFF35F8F0821104B1A681161BFF35F8F3F
S315808023E0002219688A61BFF35F8F1968CA61BFF35B
S315808023F05F8F41F6F0711A681164084A1178012955
S315808024000CBF4FF400711221BFF35F8F1B68107869
S315808024101965FFF7B5BF00BF7C9C8780809C8780CD
S3158080242070B504460D46164623F0F0F8002806DA85
S315808024302A46BDE870400D490D4857F06DB8002199
S31580802440204623F0C7F9002809DA2A460749094831
S3158080245057F062F82046BDE8704023F011B93146C6
S315808024602046BDE8704023F046BA00BFAC0986801E
S31580802470D7118780F11187802DE9F04D04468AB087
S315808024804B4800F089FA002849D00027DFF824A13C
S31580802490DFF824813A46514606A857F01DF8204633
S315808024A006A94BF030FC8346B0B3014620464BF0FC
S315808024B01DFC061E30DB314620464BF0D8FC0022C0
S315808024C0014620464BF012FA58F066FB20B3394617
S315808024D02FF00AFE02230546009342463146204667
S315808024E004AB53F0F2FE022840D1059AAA4213D05B
S315808024F02B4606A9314857F00FF8049B08211BBA52
S31580802500049300232DBACDE90013424659462046CE
S3158080251004AB059505F038FADFB90127BAE7284874
S3158080252000F03AFA0028B0D1264800F035FA002823
S31580802530ABD1244800F030FA78B9224800F02CFAE2
S3158080254038B100F041FA02221F4955F075FF002804
S315808025509BD000200AB0BDE8F08D00F035FA0422C9
S315808025601A4955F069FF00288FD0E6E73146204624
S31580802570174A53F07FFE061ECEDB164A6FF00103A4
S31580802580314620464CF09EFF021EC5DB9542C3D065
S315808025902B4606A9104856F0BFFF04233146009388
S315808025A020460C4A03AB03954BF0D5FFB4E700BFBA
S315808025B04ACB86806ACB868075CB86807CCB86802C
S315808025C053CB86805CCB86800725878065CB86804B
S315808025D0A7CB8680B2CB8680B6CB8680F8B5574A25
S315808025E0D9F800309A63FFF7F3FE554800F0D4F9A6
S315808025F0064610B900242046F8BD00F0E5F9012290
S315808026000146504855F018FF04460028F2D1012231
S3158080261064204D49FFF704FF22466A204B49FFF725
S31580802620FFFE4B4D012207204A49FFF7F9FE012222
S3158080263045204949FFF7F4FED5F84831BFF35F8FCF
S3158080264043F40063BFF35F8F444FC5F84831D7F8B2
S315808026504831BFF35F8F43F08063BFF35F8F452040
S31580802660C7F84831214623F046F9022056F0A6F86D
S315808026700121452023F03FF96B6ABFF35F8F13F406
S31580802680006320D0BFF35F8F3548EB6256F044FFFE
S315808026907B6ABFF35F8F13F080631CD0BFF35F8F3D
S315808026A03048FB6256F038FF01216A2023F023F9F7
S315808026B00026B44216D02C4856F02EFF2B4856F072
S315808026C02BFF54F0EBFE2A4856F026FF0422294B36
S315808026D034461A61DCE7284856F01EFF0422254BD3
S315808026E0DA60E6E7254B1C70D5F84831BFF35F8FFB
S315808026F023F40063BFF35F8F184AC5F84831D2F858
S315808027004831BFF35F8F23F08063BFF35F8F1948B3
S31580802710C2F84831FFF752FD0446014618B1184881
S3158080272056F0FAFE67E7452023F0E5F8022056F05A
S3158080273045F80121452023F0DEF85CE70001008022
S31580802740E91A868028138680F21A8680041B868002
S315808027500070E044161B86802B1B868000C0044850
S315808027603A1B8680511B8680681B8680911B86805B
S31580802770461B8680849C87805D1B8680989C87800C
S31580802780B81B868030B56A4885B000F005F9044666
S31580802790E8B100F019F90322664955F04DFE00280C
S315808027A0654C18BF002400F00FF90322634955F069
S315808027B043FE634B002808BF1C4600F005F90322C0
S315808027C0604955F039FE604B002808BF1C46584842
S315808027D000F0E2F848B100F0F7F804225B4955F042
S315808027E02BFE5A4B002808BF1C46514800F0D4F86F
S315808027F088B100F0E9F80222554955F01DFE50B99E
S3158080280000F0E6F84378492B00F08780514C524A95
S315808028104C2B08BF1446204600F0DEF8FFF720FDDB
S31580802820022803D14D494E4839F080F94D4BD3F873
S315808028303026BFF35F8FD3F83436BFF35F8F4A4835
S315808028400293ADF80C2039F0C1F9D0B9474856F0DB
S3158080285063FE9DF80830D90713D49DF80920134369
S315808028609DF80A2013439DF80B2013439DF80C2076
S3158080287013439DF80D20134303D03B4802A939F0BA
S31580802880F9F9384BD3F83826BFF35F8FD3F83C36C7
S31580802890BFF35F8F36480293ADF80C2039F096F9F6
S315808028A0B8B99DF80830DA0713D49DF80920134308
S315808028B09DF80A2013439DF80B2013439DF80C2026
S315808028C013439DF80D20134303D0294802A939F07C
S315808028D0D1F9284B284A1978284B2948002914BFD2
S315808028E01146194639F022F9264839F06FF960B9D0
S315808028F0254839F06BF904461B4839F067F9054657
S315808029006CB929461F4839F011F9204901AA1E2041
S3158080291020F050FA002005B030BD1D4C7BE70722A1
S3158080292020461C4955F088FD0028EAD02146E9E7F3
S315808029305CCB8680031C8680DB1B8680071C86801A
S31580802940E01B86800B1C8680E51B868065CB868017
S3158080295007258780FE1B8680EA1B8680EC1D878004
S315808029600F1C86800000E144181C8680201C86808F
S31580802970501C8680989C8780A3708780AB70878068
S31580802980591C8680611C8680691C86807E1C868018
S31580802990F21B8680761C868008B5084B01469A6A2B
S315808029A0074B9A4207D00822064855F045FDB0FA73
S315808029B080F0400908BD0020FCE700BF00B43040AD
S315808029C02CD1EAAD2CB430400048704735B43040C5
S315808029D00048704747B43040014608B5A0B11048DA
S315808029E039F0A4F80F4855F044FDA8B10D490E483A
S315808029F039F09CF80D4855F03CFD78B10B490C4870
S31580802A00BDE8084039F092B80A4855F032FD08B1E1
S31580802A100849E4E70849E2E70749E8E70649EEE737
S31580802A20A313878035B43040AE1387803AB4304064
S31580802A30691C86802CB43040761C868000230144B5
S31580802A40884200D3704702780130FF2A08BF00F899
S31580802A50013CF5E72DE9F04D3024002554269EB0C3
S31580802A6007460D22002107A8DFF840B10694FEF7BD
S31580802A7077FE04948DF814508DF80B5001223146E0
S31580802A80022003AB23F082FA044688B901460123EB
S31580802A900DF10B02039823F09AF921464C23039873
S31580802AA00BAA23F023F9044630B1414856F034FD11
S31580802AB00136582EE2D152E00B9B3E4A9342F7D1A3
S31580802AC020210DF13200FFF7B9FF04210DF152006C
S31580802AD0FFF7B4FF10210DF15600FFF7AFFF0DF120
S31580802AE0180A10210DF16600FFF7A8FF11222146F2
S31580802AF05046FEF735FE102250460DF1660155F0A0
S31580802B0061FC0AAB13F8012D2E2A02D19A451C70DE
S31580802B10F8D10DF11008052200214046FEF720FEEF
S31580802B2004220DF15201404655F04CFC4246042366
S31580802B30302112F8010B08B902F8011C013BF8D14B
S31580802B4032460DF13201584656F0E6FCA821012026
S31580802B501AF0D2F8044630B9174856F0DDFC28467C
S31580802B601EB0BDE8F08D53462021144ACDF80080F2
S31580802B70683056F09EFC20220DF1320104F1080067
S31580802B8055F020FC0422414604F1480055F01AFC99
S31580802B9010220DF1560104F1280055F013FC7B6854
S31580802BA001357C60276063601C6081E702AA86802D
S31580802BB0EAA98680AA5533EE1EAA86803AAA86809E
S31580802BC010B514461A46029B8A42134408D88B4213
S31580802BD00CD90146084856F09FFC6FF0110010BD55
S31580802BE0A242F6D3A342F4D90020F8E7A242FBD2D0
S31580802BF0A342F9D3EDE700BF423086802DE9D04DE0
S31580802C002F4C8046E06F89B00E4692461F46DDF88F
S31580802C1040B078B930462B49022200910B1F002E96
S31580802C2018BF30469C3901F005FF80B1264819F0DF
S31580802C3072FB26E001F0E9FE0328EBD1404656F090
S31580802C4095FC014603A855F0B5FB03A8E3E7D4F8C5
S31580802C509810D4F89C2061B91C4B51461A1F019359
S31580802C60009240460222A43B05F0C2F968B118481A
S31580802C70DDE73B461748CDF800B0FFF7A1FF002877
S31580802C80EAD0012009B0BDE8D08DD4F8A010D4F860
S31580802C90A42061B9D4F8A0000AF0EAFF084801F0C0
S31580802CA0D3FF0028EED00C4856F036FCE9E73B4649
S31580802CB00A48CDF800B0FFF783FF0028E1D1E9E725
S31580802CC09825888034268880062486803C2688803D
S31580802CD02E2486802B2486805224868007C58680F3
S31580802CE010B5FEF74AFF044635F026FD204610BD16
S31580802CF02DE9F04D0469CF07D4F8C030064643EA03
S31580802D0001030D468EB0C4F8C0301AD5704F4FF48B
S31580802D10157200213846FEF723FD6E4838F0DEFFB7
S31580802D20C7F8BC0001F0DCFD804601F0E9FD002398
S31580802D300246414607F1C40054F0C7FE0123C7F816
S31580802D40C030280504D5306810B1002156F095FC36
S31580802D50A90740F1F8804FF0000B0DAA0CA93068C6
S31580802D60CDE90CBBD6F814A001F026FE584F8046DC
S31580802D70C7F888B0C7F884B001F047FE022808D02B
S31580802D8003282AD05146544856F0C6FB6FF05A0124
S31580802D903BE007F18803059307F18403049364235A
S31580802DA001900293009041463846CDF80CB00CAB2A
S31580802DB00DAA06F08DFB002825DB0D9BC7F84C807D
S31580802DC03B650C9B7865BB64404601F01EFE0228FD
S31580802DD020D003284DD0414823E04146404856F0D4
S31580802DE09BFB07F18803009359464046D7F8BC2061
S31580802DF007F1840302F0E0FA01460028E4D010F15E
S31580802E005B0F02D1BEE76FF00101364856F084FB36
S31580802E10012714E1344A796DF86C05F09DFC18B170
S31580802E20324819F078FAF3E7314A796DF86C05F013
S31580802E30A7FC08B12F48F4E72F4A796DF86C05F026
S31580802E4063FC08B12D48ECE72D4A796DF86C05F066
S31580802E506FFC08B12B48E4E7F86C06F0B3F82A4A91
S31580802E60C7F88000796DF86C05F0B2FCE0B1274830
S31580802E70D7E702230021404687F8913002F014FC80
S31580802E800523002187F89000404687F8923002F02B
S31580802E90E9FB0021C7F88000404602F0F5FBC7F8C1
S31580802EA08C00C7F89400012097F89330032B01D0CB
S31580802EB0182B31D1164A03210DABA2F1940001F073
S31580802EC0C1FE002830DA02302ED01248A9E700BF32
S31580802ED098258880CD8386809D298680622A868073
S31580802EE074298680BE29868029268880E2298680E4
S31580802EF028268880F92986802A268880172A8680AF
S31580802F002B2688802C2A868024268880432A868041
S31580802F102C268880852A86807B6C002B00F0938087
S31580802F20BB691BBAC7F8943097F891300E2B08D1BD
S31580802F30D7F88420D7F89430C7F88C201344C7F804
S31580802F409430C7F87C806A0724D53068002800F0E2
S31580802F508B80002156F091FBB14F716897F891C0B4
S31580802F60B268BCF10E0F15D8AE4B43FA0CF3DB0773
S31580802F7010D497F89270052F05D01C2F0AD8AA4BAB
S31580802F80FB40DF0706D500230093FFF737FE074611
S31580802F90002854D115F0080800F0A180FFF7A0FE24
S31580802FA0E36F80460993D4F88030D4F884B00A934E
S31580802FB0D4F8883094F890A00893D4F88C3007930E
S31580802FC094F891300E2B52D1BAF1000F4FD00B93DB
S31580802FD0089B4FF40012990001F57F2101F6FF715D
S31580802FE0090D090504F1C40054F0CCFC074600287D
S31580802FF000F00F810B9BC4F894000DAA04924FF0C9
S3158080300080720392089A3946029250465A46CDE992
S31580803010007B01F0A1FB0D9900283ED00790504699
S31580803020CF1B01F0FFFB079A014612F1260F20D1B4
S31580803030B8F1000F01D0FEF79FFD6FF0020738468A
S315808030400EB0BDE8F08D3B6D4BB1784A796DF86CEA
S3158080305005F0C4FB00283FF467AF7548E1E6002899
S315808030607FF462AF7348DCE6734B186874E7079F1A
S31580803070C3E7B7F1807F0CD3704856F04DFA70481D
S3158080308056F04AFAB8F1000F00F09A804FF0FF3779
S315808030908EE06C4856F040FAF1E7079B23F03F00BC
S315808030A0CB1B3F3121F03F01C4F88830091AFEF7E7
S315808030B0CDFE0D9ABAF1000F01D1BB454BD00A9B4C
S315808030C0BB4248D9099B934245D2636C002B3ED044
S315808030D094F82230042B02D15B4819F01CF9EB0658
S315808030E01AD5D4F89810D4F89C2004F1AC030093B8
S315808030F0521A04F1A80304F1C40001F04DFD07467D
S3158080310000289CD1D4F8A810504838F03DFDD4F8DA
S31580803110AC104F4838F038FDAF0624D494F892002E
S3158080312000F0BCFA824680BB15F4F86F2DD0B8F1DA
S31580803130000F01D0FEF720FD94F8920001F0EEFAA0
S3158080314094F892200146434856F0E6F960E6424874
S3158080315019F0E1F896E7D4F88C1004F1C400521A7D
S3158080316054F06CFBBBE704F1C4073846D4F8A01052
S3158080317004F0E2FD384604F1A40204F1A00104F0D3
S315808031806DFE07460028C9D059E76C0620D42806EC
S3158080319029D4E9052ED415F4806733D0524631463A
S315808031A04FF4806000F062FA0746B8F1000F01D0D4
S315808031B0FEF7E2FCFA1C3FF440AF7B1C7FF43FAF06
S315808031C0264856F0A9F9FFF741F84FF0FF3736E7E2
S315808031D031464020D04707460028D8D039462048F7
S315808031E056F09AF92BE731468020D047074600284B
S315808031F0CFD0F3E731464FF48070D047074600281A
S31580803200C9D0EBE7B8F1000F3FF419AFFEF7B4FCF5
S3158080321015E7B8F1000F3FF4FBADFEF7ADFCF7E59F
S3158080322098258880EBBFFFFF004000142C2688807D
S31580803230AF2A8680D02A86809C9C8780F42A868046
S315808032403D2B8680242B86805A2B8680DB2B86801E
S31580803250E82B8680F32B8680942B86803D2C8680F7
S31580803260212C8680024B41F61F714361FFF740BD5A
S31580803270918A8680024B41F210714361FFF738BD97
S31580803280B62F868010B5202200210446FEF768FA84
S3158080329001232373014B236110BD00BF982588804D
S315808032A070470000B0F5806F10B512D10B695A6CEB
S315808032B02AB90949094856F02FF9012010BDD3F85B
S315808032C094400748214656F027F9D9F80000A04750
S315808032D0F3E70020F2E700BFC2648680C8648680F8
S315808032E00C658680B0F5806F38B515D101230C6961
S315808032F00A48D4F8945084F89130294656F00CF9CF
S31580803300D4F8A420D4F888100AB1D4F8A02028460E
S31580803310BDE8384041F038BC002038BDED638680FA
S315808033202DE9F04104460F4698460026151FBE4279
S3158080333001DBBDE8F0810EB104F8018B55F8041FDE
S31580803340204655F037F8286855F093F801360444BE
S31580803350EDE7000038B50C460D6938F0D5FC30B9FC
S31580803360D5F88810054838F00FFC002038BDD5F890
S315808033709430E169A0699847F7E700BF4565868004
S315808033802DE9F045044685B049480E4638F01EFC46
S31580803390054660B307464FF0000A284655F069F81F
S315808033A07B1B98420ED8BAF1000F20D0E20502D559
S315808033B0404856F0B1F83146204605B0BDE8F04524
S315808033C0FEF740B9B84618F8012B3D2A0DD163B176
S315808033D017F8013C662B08D10021404656F04DF9FE
S315808033E010F0010F18BF4FF0010A4746D5E7E30575
S315808033F002D5314856F090F8B4F5806F55D134694E
S31580803400D4F8A430D4F8A010039300293AD004F1DC
S31580803410C405284604F090FC284603AA04F1A0013E
S3158080342004F01CFD054648BBD4F8A00004F048FB98
S315808034302946224AD4F8A0004BF00BF9031E01DA04
S31580803440023314D11A4838F0C1FB0546D0B1D4F87E
S31580803450A06055F00EF801231844019300902B4606
S315808034603046134A164904F02FF900280ADA4AF0C2
S31580803470ABFE14490246144856F04EF8012005B03A
S31580803480BDE8F0852046FEF7FBF8D4F8A020D4F876
S3158080349094100E4856F040F818F058FF2046FEF7F4
S315808034A009F90B4818F037FFE8E70020E7E700BF07
S315808034B0FA6686804E658680656586808B65868021
S315808034C08A658680C109868092658680A565868024
S315808034D0E1658680B0F5806F2DE9F3410C4648D151
S315808034E00E69736C3BB92449244856F015F801203F
S315808034F002B0BDE8F08196F822303768042B26D05A
S315808035000027A369002B2CDD0025A846E36953F8A4
S31580803510250054F0AEFFA36901350130AB4280446B
S31580803520F4DC404619F0D8F92023E269A169054682
S31580803530FFF7F6FED6F894401148214655F0ECFF09
S315808035402B463946D9F800000E4AA047CFE701AB13
S315808035506A460121384601F092F8019B002BCFD034
S31580803560CFE7094838F032FB064D002818BF05465C
S31580803570E0E70020BCE700BF24648680C86486803C
S315808035802B64868065898780FA66868030B5B0F5BB
S31580803590806F0C4687B024D10B695A6C2AB9124940
S315808035A0124855F0B9FF01201CE002ADD3F8942073
S315808035B00F49284655F090FFE3691B68CDE90035B1
S315808035C0FEF7E1FC044608B1FEF7CDFC00216B4690
S315808035D0022208460AF09EF8002CE4D0FEF785FC8D
S315808035E0E1E7002007B030BDBE648680C8648680EF
S315808035F061DD8680B0F5806F70B50C4628D10E6906
S31580803600736C2BB91349144855F086FF012070BD21
S31580803610124838F0DBFA48B1002156F02EF8A169BD
S31580803620054659B10A23E269FFF77AFED6F89440B7
S315808036300B48214655F070FFA047E7E7094838F0E8
S31580803640C5FA01460028F1D0284654F0B3FEEDE74E
S315808036500020DCE774648680C86486807B6486808C
S3158080366084648680FA6686807047704770B50D461A
S3158080367004461646FFF7F8FFFFF7F7FF29462046F0
S31580803680B0472B6993F89130012B05D0B4F5007043
S3158080369018BF4FF0FF3070BD0020FCE7014B53F818
S315808036A02000704790D2858003681A780AB10A2AEA
S315808036B000D1704701330360F6E7000082680146D7
S315808036C002B94268014855F027BF00BF22DF868055
S315808036D02DE9F0411F460B7804462F2B0D469046E8
S315808036E0ADF5087D1AD1037BC3B100238DF81C30DC
S315808036F0284654F0BEFE064607A854F0BAFE064415
S31580803700B6F5007F11D92A46154807A955F004FFDA
S315808037106FF023000DF5087DBDE8F0814FF40072CF
S31580803720216907A854F04EFEE2E7294607A854F09F
S3158080373055FE07A90B4855F0EFFE42460A4902A876
S3158080374055F0CAFE2046656801AB02AA07A9A8473C
S315808037500028DFDB0FB1019B3B600120DAE700BFE9
S31580803760D0CD8680EBCD868061DD868073B504463C
S3158080377010460D461E4638F095FA68B1102101AA8A
S3158080378055F081FF00280ADB334629462046019A78
S31580803790FFF79EFF02B070BD6FF00100FAE76FF011
S315808037A01500F7E710B50446406818F0E3FFE06837
S315808037B018F0E0FF206918F0DDFF606918F0DAFF05
S315808037C0A06918F0D7FFE06918F0D4FF206A18F056
S315808037D0D1FF606A18F0CEFFA06A18F0CBFF204632
S315808037E0BDE8104018F0C6BF2DE9F84507680C463D
S315808037F098463946054617488A4611F8013B33B1C3
S31580803800202A02D1C65CB60601D49A42F4D1AAEBAC
S315808038100706701C19F060F8206050B100210D48B1
S315808038208E42226807D1002393550123C5F800A0D4
S315808038306360BDE8F88553187A5CB8F1000F06D0CE
S3158080384010F802C01CF0010F1CBF2032D2B21A7051
S315808038500131E5E7740E8680F7B50C46162103683C
S3158080386005460020019361601E4613F8011B2029BE
S3158080387019D0092917D000B101962329019B06D139
S315808038800021184613F8016B7EB901B10190019B26
S3158080389019780A290DD10022013362600193019B38
S315808038A02B6003B0F0BD0120DEE70A2EEDD001212A
S315808038B0E7E709B90222EFE7022A06D100230A2226
S315808038C0214601A8FFF790FFE9E7012320222146C0
S315808038D001A8FFF789FF0027074E56F83710002981
S315808038E0DDD0206854F09DFD20B906EBC70673684D
S315808038F06360D4E70137F0E748DD858073B50222BF
S315808039000D46694604460668FFF7A6FF019801289A
S3158080391009D0216832460548891B55F0FDFD6FF038
S31580803920150002B070BD009B2B60FAE7A3048780E8
S31580803930F7B50E460222694605460768FFF78CFF73
S31580803940019C012C09D029683A460A48C91B55F042
S31580803950E3FD6FF0150003B0F0BD009D0A220021C3
S31580803960284655F0B1FE3060284618F003FF204681
S31580803970F1E700BF0304878010B50446084838F015
S3158080398091F948B12246102155F07DFE0028ACBFC2
S3158080399000206FF0150010BD6FF00100FBE700BFBF
S315808039A04565868010B51429044686B006D81448A5
S315808039B055F0B2FD6FF01B0006B010BD57F046F98A
S315808039C004AA01460F4857F0A3FAA8B19DF815308E
S315808039D0204603939DF814309DF8102002939DF81D
S315808039E01330094901939DF8123000939DF8113068
S315808039F055F072FD0120DFE76FF00100DCE700BF44
S31580803A00AEC9868046868780CEC986802DE9F04D70
S31580803A1000250C46ADF6D80D874B294619220746D8
S31580803A201EA8119312951395149515951D95FDF7DE
S31580803A3097FE294625950125402226A8FDF790FEEA
S31580803A402046FFF73BFE636B256323B3A36B002B76
S31580803A5005DA002528460DF6D80DBDE8F08D774825
S31580803A6038F020F905460028F3D0A06950B10DF5CD
S31580803A709B614FF4806213F0BFFE71480DF59B61A8
S31580803A8038F054F8284654F0F4FC00220146284643
S31580803A9019F01DFFDDE7216921B96168694855F014
S31580803AA03BFDD7E73846684AFFF760FE002802DA92
S31580803AB061686648F3E7644838F088F863690890F7
S31580803AC00993CBB154F0D5FC0646606954F0D1FC9D
S31580803AD006440136304618F0FFFE099018B95C48D6
S31580803AE055F01AFDB6E7636931460093594A089BBB
S31580803AF055F0DFFC099B0893E169002969D1E36968
S31580803B000793002B6DD1E36AD90717D5524838F0D1
S31580803B105DF80546514838F059F80646504838F0E1
S31580803B2055F880464F4838F051F8334601902A46FA
S31580803B304D49CDF8008025A855F0CEFCE36A9A07DA
S31580803B400CD54A491DA854F035FC15211FA8FFF7CE
S31580803B5029FF0028BCBF00238DF87430E36AA569ED
S31580803B609B0702D1002D00F0AC800021404E4FF49F
S31580803B707F7237A83691FDF7F3FD002D14BF284656
S31580803B80304654F076FC054625A854F072FC0544F0
S31580803B901DA854F06EFC01350544B5F5806FA1698A
S31580803BA070D9002914BF0846304654F062FC04461A
S31580803BB025A854F05EFC05461DA854F05AFC4FF4A7
S31580803BC080620346009221462A462A4855F0A4FC04
S31580803BD02CE0E06854F025FC002890D1089B079360
S31580803BE091E73846244A07990DF59B63FFF7BEFD1A
S31580803BF0002804DA6168214855F08EFC16E0DDF8ED
S31580803C00D854284655F0B2FC01460EA854F0D2FB13
S31580803C10194837F0DBFF1C2103460790184A009528
S31580803C2016A855F046FC1B287FF66DAF099818F0CC
S31580803C30A1FD01250EE700BF918A8680A9DC86805A
S31580803C40FA668680B2DC8680D0DC8680DEDC868002
S31580803C5009DD8680FECE868065DD86806CDD868009
S31580803C6075DD86807FDD868087DD868097DD8680B0
S31580803C7065898780A0DD868024DD868033DD8680A9
S31580803C805EDD868021B14FF4806236A854F09AFB3F
S31580803C9025A936A854F0A2FB1DA936A854F09EFB10
S31580803CA04FF480620DF59B6136A813F0A5FD0DF566
S31580803CB09B61A84837F03AFFA7480DF59B6155F080
S31580803CC02BFCA64837F082FF216A149011B3E068F6
S31580803CD054F0A7FBF0B9089B1493089B1293079B1B
S31580803CE0002B00F01681032416AB1393149B1BB90B
S31580803CF09B4837F06BFF1490089800F07BFE149BEE
S31580803D000546002B00F00781139B002B00F01B815A
S31580803D1004240CE1149B002BDFD0D4F820A0BAF1C8
S31580803D20000F40F08380636A002BD5D08D4837F0B2
S31580803D304DFF0546002855D18B4837F047FF05460D
S31580803D408A4837F043FF8046002D48D1DFF820B27D
S31580803D505D46884BB8F1000F02D1DFF81482C346E6
S31580803D60606A0A9354F085FB0A9B00283ED0626A7B
S31580803D707F49024412F8010C7F4A2F2808BF0A46E1
S31580803D80606A0D930A9254F074FB0A9A064610462E
S31580803D900C9254F06EFB0644284654F06AFB0A90D7
S31580803DA0584654F066FB0A998246013640460E4450
S31580803DB054F05FFB0D9B0B9018460A9354F059FB89
S31580803DC00B9956440E440644304618F085FD0A9B6E
S31580803DD082460C9A60B9694855F09EFB26E7DFF8E3
S31580803DE0A0B1B6E7624B98469B46B9E7654AC7E776
S31580803DF08DE824080493CDF80C803146636A624A44
S31580803E0055F057FB554600235146544A3846FFF7AE
S31580803E10ADFC0646284618F0ADFC002E0DDA002350
S31580803E201493236A23B161685848E5E60025EAE75A
S31580803E30616A11B1564855F06FFBA46A002C3FF435
S31580803E404CAF464837F0C2FE002155F016FC8046BE
S31580803E5049F00EFB054600287FF43FAF4D4837F08A
S31580803E60B5FE18B94C4855F057FB36E7294655F0CC
S31580803E7004FC0646DFF824A12378202B30D05146D7
S31580803E80204654F0C3FB0A9060B3A0EB040B0BF181
S31580803E90010018F021FD5A462146054654F092FAD3
S31580803EA0002305F80B30284654F0E3FA58B10023F6
S31580803EB029463846374AFFF759FC002814DA2946BE
S31580803EC0374855F029FB0A9B13B1284618F052FCD7
S31580803ED02046514654F09AFB04460028CCD1FCE615
S31580803EE00134C9E72546DEE74FF40051404603F0AA
S31580803EF069FE304649F0BCFA10B129462948E0E788
S31580803F003146404603F0A6FE0028DCD02946264866
S31580803F10D7E70224EAE600F078FD022803D023481A
S31580803F2037F054FE1490149B002B7FF4EDAE284618
S31580803F3000F06BFD2246014611AB38B1002138680E
S31580803F4006F082FC72E60E4B1393E1E6386807F042
S31580803F5029FA6BE6FA668680C6DD8680D2DD868023
S31580803F600ADF8680DDDD8680E5DD8680C18087808C
S31580803F70658987807B5D8680B96D8680E9DD868070
S31580803F805C958780A6DC868005DE868012DE8680CC
S31580803F903ADE868069DE86807BDE8680F6868780CE
S31580803FA0ABDE8680C6DE8680E4DE868013DF868012
S31580803FB013B501AB1446FFF78BFB0028A1BF002207
S31580803FC00120019B1A5502B010BD00002DE9F34DEA
S31580803FD00D46D1F800B0064601A9284692461F466E
S31580803FE0DDF82880FFF78AFC041E09DA5A4629689C
S31580803FF00F48891A55F090FA204602B0BDE8F08DB8
S31580804000019D524629463046FFF7D2FF041E04DAC8
S315808040102946084855F080FAEEE73B465246514697
S315808040203046CDF8288002B0BDE8F04D00F004B867
S31580804030E9CF868006D086802DE9F04D8EB01E46EB
S31580804040169B8046102B0F460591039240F3438141
S315808040501021BA4855F060FA6FF01E0420460EB0E3
S31580804060BDE8F08D4FF0010A3846C6F810A054F0AE
S3158080407000FA524604460CA905A8059DFFF7ECFB7D
S315808040800D9B0E2B08D0142B1AD0042B1BD13146B6
S3158080409005A8FFF733FC0CE0169B0399221D01339C
S315808040A022F0030200930A443346404605A9FFF76F
S315808040B08DFF00280446D1DB05A8FFF7F5FA0AE1D3
S315808040C006F10801E4E72A4605999D48491B55F083
S315808040D023FAF1E706F10C0105A8FFF729FC0446CF
S315808040E042E14820059C18F0F7FB054610B96FF031
S315808040F00B04B3E748220021FDF732FB291D05A872
S31580804100FFF7FCFB00280BDA05992246091B8D48B0
S3158080411055F002FA2846FFF745FB6FF015049DE7B8
S31580804120B26905F1400306F11401B36129646A64BA
S31580804130136001220AA905A8059CFFF78DFB0B9BBE
S31580804140152B00F2C78001A252F823F0334180807C
S31580804150D5428080D5428080A5418080D54280802E
S31580804160D5428080D5428080ED418080ED418080BF
S315808041702B42808079428080B9428080D5428080FF
S31580804180D5428080D54280808F4280809D4280804B
S31580804190AB428080D5428080C9428080D5428080F3
S315808041A0CF42808001220CA905A8059CFFF754FB8D
S315808041B00D9B062B0DD00C2B11D173682BB968689B
S315808041C054F0A1F97060002891D005A8FFF76CFAA9
S315808041D0AFE705F1080105A8FFF790FBF5E705999C
S315808041E02246091B564855F097F9EEE705F11001EE
S315808041F005A8FFF783FB041EFFF630AF286954F0CD
S3158080420082F9E86000283FF472AF4F49286954F0FC
S31580804210FDF9044600288CD054F075F96861002831
S315808042203FF465AF0023237083E705F1180105A865
S31580804230FFF764FBEB6904460493CBB94349A869CD
S3158080424054F0E4F9A0B100F1070B2021584654F0D0
S3158080425003F9A0EB0B0A0AF1010018F03DFB5246E8
S315808042605946E86154F0AEF8EB69049A03F80A205F
S31580804270002CBFF65EAFF1E6EB69002B7FF459AF79
S3158080428005F11C0105A8FFF739FB0446F0E72B6A88
S31580804290002B7FF44EAF05F12001F3E76B6A002B8C
S315808042A07FF447AF05F12401ECE7AB6A002B7FF4FE
S315808042B040AF05F12801E5E7012305F138016B63FD
S315808042C005A8FFF735FBE0E705F12C01F8E7012328
S315808042D0EB632EE70594012208A905A8059CFFF7C4
S315808042E0BBFA099B122B5ED801A252F823F000BF3D
S315808042F0D7428080A7438080B1438080654080801C
S31580804300A7438080D5408080E3408080A74380809B
S31580804310A7438080A7438080A7438080A7438080EF
S3158080432051438080914380806F438080A743808083
S31580804330A7438080A7438080514380801A048780EA
S315808043403904878060048780635886807B04878071
S3158080435007A905A8FFF7D2FA079D044625B170689C
S3158080436008B118F007FA7560002CB4DA76E638461C
S3158080437054F07FF8169B0399C21C013322F0030206
S3158080438000930A443346404605A9FFF71FFEA6E6FA
S3158080439006F1100105A8FFF7CBFA041E9BDA05A863
S315808043A0FFF782F95AE6059922460248091B8EE66E
S315808043B0012453E683048780F0B50546ADF5037DF9
S315808043C010480C46164654F054F80746204654F05A
S315808043D050F83844B0F5007F224608D909490A4802
S315808043E055F09AF86FF023000DF5037DF0BD0749EF
S315808043F001A855F071F83246284601A9FFF7D8FD05
S31580804400F2E700BF92CD8680A0CD8680C0CD8680A3
S3158080441070B504462546006818F0ACF9606818F0D7
S31580804420A9F955F8140F0668A84204D12046BDE83C
S31580804430704018F09FB94038FFF7B4F93046366837
S31580804440F2E773B505461C200E4618F045FA0446F9
S31580804450A8B11C220021FDF783F904F1140363615E
S31580804460A361012332460093314623462846FFF7CF
S31580804470E3FD002803DA2046FFF7CAFF00242046A2
S3158080448002B070BD2DE9F04D0D460024CB68444ABC
S315808044908AB00933069083FB0220D917414BC1EB42
S315808044A0A00100932A69234628680294019417F014
S315808044B07DFD064600286FD03B4837F087FB2B462C
S315808044C00746A246012253F8148F0593059B98458B
S315808044D033D12FB1002C5BD13946344855F01CF846
S315808044E0BAF1000F0BD05146304617F066FC012892
S315808044F005D0023030D169682D4855F00DF809A96C
S31580804500304617F07FFC0446304617F07BFD012C41
S3158080451040D109990698FFF779FA00283CD06C69D2
S31580804520059BA34238D054F8103C23B90698A4F151
S315808045304001FFF76BFA2468F2E7A8F1400B531C21
S315808045401C495846079354F0C7FF5A465946304609
S3158080455017F0EAFC012805D030460AB0BDE8F04D58
S3158080456017F050BD696831B158F83C0C53F059FF4B
S31580804570002808BFDA463FB1394658F83C0C53F0DC
S3158080458050FF002808BF5C46D8F80080079A9DE7D0
S31580804590A246A8E70234C2D00AB0BDE8F08D00BF3B
S315808045A067666666BD3680801CD086802FD0868082
S315808045B04FD08680350C87802DE9F04104461E4693
S315808045C08846174600211C22079DFDF7C9F89DF86D
S315808045D01830C4F8008023739DF820306760A66009
S315808045E023768DB1284653F044FFB0F5007F16D2EE
S315808045F0284653F088FF2061A0B13DB90023002072
S315808046002269D054BDE8F0810848F2E72F212846F8
S3158080461053F04EFF0028F1D0431B0133EFE76FF054
S315808046201B00EFE76FF00B00ECE700BF65898780A2
S31580804630006918F09FB8000070B505461646FFF7EA
S3158080464000FF044620B9084854F066FF012070BDFB
S315808046500EB10123036121462846FFF713FF2046CA
S31580804660FFF7D6FE0020F2E7C70E878000F13C0375
S31580804670002053F8042F02B970470130F9E7F8B566
S31580804680054616461F46FFF7F1FF884219D9002254
S3158080469005F1400454F821303C351BBA3B601746FF
S315808046A08F4205D1013004EB800010443060F8BD24
S315808046B055F8043F01371BBA033323F003031A44AA
S315808046C0EEE700203860F1E7012938B505460DD937
S315808046D0084C0222284604F1080153F088FF18B15D
S315808046E054F80C3F002BF4DC206838BD6FF0150041
S315808046F0FBE700BF0CDC85800368002B01DA002095
S3158080470070478B42FCD00C30F6E710B50C461146CC
S31580804710FFF7F2FF00B18468204610BD0246024949
S315808047200248FFF7F2BF00BF31CC8680B8F485801F
S31580804730024602490248FFF7E8BF00BF08CC868060
S3158080474014F38580024602490248FFF7DEBF00BF28
S315808047503CCC868090F585802DE9F34D0E9FDDE9F2
S315808047600AA805463960D8B216460C46FFF7EAFF96
S31580804770DDF834B0024605BB2449254B2548B44232
S3158080478018BF194654F0C8FE2146234854F0C4FE0B
S31580804790012D17D0042D27D0EDB9B4420C9A07D0BD
S315808047A093452FD34FF480334146504600F0E0F84E
S315808047B00C9B002023443B6013E00146174854F04D
S315808047C0ABFEE1E74246594650460CAB51F0C6F9FE
S315808047D010F1260F13D12946114854F09DFE6FF0B3
S315808047E0250002B0BDE8F08D01AB524640460C995B
S315808047F0CDF804B051F0E1FB019B0C93E8E70028EB
S31580804800D6D0EEE76FF01B00EBE700BF6FD68680D1
S3158080481073D686807BD68680AB14878084D68680C6
S3158080482098D68680024602490248FFF76EBF00BF4F
S315808048301DCC868058F4858038B504461546236815
S31580804840002B02DA4FF0FF3006E0606828B12946F7
S3158080485053F0ACFD08B9206838BD0C34EFE7000012
S31580804860024602490248FFF7E7BF00BFC32487801C
S31580804870B8F48580024602490248FFF7DDBF00BF53
S31580804880EF27878014F38580024602490248FFF726
S31580804890D3BF00BFC423878090F5858002460249B6
S315808048A00248FFF7C9BF00BF25CC868058F4858033
S315808048B0024602490248FFF7BFBF00BF0D1F8780AF
S315808048C060F58580084632F0020108B503D154F040
S315808048D0D4FE024B1860002008BD00BF9C9C878058
S315808048E008B5064837F072F920B11022002154F0BD
S315808048F01FFF08BD4FF00040FBE700BF749F868096
S3158080490038B5114837F062F920B11022002154F071
S315808049100FFF38BDD9F83040D9F83C50D9F83420CB
S315808049206119914288BFD9F83450084888BF2D1BB9
S3158080493037F04CF930B11022002154F0F9FE2C4426
S31580804940201AE6E72046FAE78C9F8680749F8680C9
S3158080495008B5064837F03AF918B9BDE80840FFF738
S31580804960CFBF1022002154F0E3FE08BD7E9F868053
S3158080497088422DE9F04104460D461646984603D076
S3158080498001D9154414440EB9BDE8F08146453746B1
S3158080499028BF474618F0ABFCAC4284BFE41BED1BB6
S315808049A0294620463A4653F00DFEAC423CBFE41978
S315808049B0ED19F61BE7E7000073B50D4E0B461546DD
S315808049C00446316880B101AA03F029FE58B931685E
S315808049D02B46204601AA03F03EFE014618B92046A2
S315808049E054F04BFE01900199084602B070BD00BF1D
S315808049F09C9C8780002307B5694601AACDE9003350
S31580804A00FFF7DAFF03B05DF804FB10B5044648F083
S31580804A102FFD38B1204600F099FA00280CBF00207F
S31580804A20032010BD0220FCE7806C003818BF01206F
S31580804A30704700002DE9F0451D4600238DB0149EF9
S31580804A402B600C46904607463360002800F08280B3
S31580804A504C4953F0E6FC18B90023089307933DE050
S31580804A600023A26C0B9309920A93002F52D0236D58
S31580804A70BBB1D4F84CA05146384609AB0BAA03F09B
S31580804A80CEFD002850D1514638460AAB0BAA03F09A
S31580804A90E2FD0146002847D1384654F0EEFD0B9062
S31580804AA042E0394BD3F800A0E5E708AB059307AB26
S31580804AB0049378230293032301935FFA88F3039008
S31580804AC0009320460B9909AB0AAA04F001FD0028C1
S31580804AD013DB0B9B2066A3650A9BE365079A7AB1F5
S31580804AE0089B2A60134433600AE00021E06F08AB9C
S31580804AF007AA00F0FBFD0028F0D010F1410F06D107
S31580804B00002004E0214817F006FC6FF015000DB0F8
S31580804B10BDE8F085E26C20461D490B9204F0C1FC0D
S31580804B20831CEDD00028E8DB0B98FFF76EFF022808
S31580804B30BBD00328D9D0002FE4D03A21384653F011
S31580804B408BFC0028DED00021013054F096FD0B9B33
S31580804B50089083E78B6C002B82D1636C002B3FF4AB
S31580804B607BAF94F82230042B7FF476AF2168094896
S31580804B7054F0D2FC0121206808AB07AAFFF77FFD9D
S31580804B80ACE700BF5C9587809C9C8780D31E86809F
S31580804B9007AF8680EF1E86802DE9F84582462548B8
S31580804BA00C4615461E46089F37F010F850B10021F6
S31580804BB054F063FD421C03460BD1E4B9002030607B
S31580804BC0386016E0FFF7C4FE8046FFF789FE08EB63
S31580804BD00003002CF2D04FF4805229465046A3B170
S31580804BE052F0C0FE306098B9134817F094FB4FF0AE
S31580804BF0FF30BDE8F885631934602A4621465046E1
S31580804C003B6052F01BFE0020F3E752F0BBFEE9E7E3
S31580804C102A183A603168094854F07EFC30684FF42F
S31580804C2080332A462146FFF7A3FE054817F073FB9B
S31580804C30E9E700BFF91F868005208680212086804F
S31580804C404D20868004F04EBE2DE9F04D836C04465F
S31580804C508EB01BB900200EB0BDE8F08DC56C28469D
S31580804C60FFF7D3FE022853D12846A16C04F09AFB25
S31580804C704FF000088346294F0026434659462846EA
S31580804C80274A009649F096F90D900028E2D0A02216
S31580804C900CAB05930BAB04930292022316220393EB
S31580804CA0019200932946204604F148030DAA04F018
S31580804CB00FFC0028CFDB28460D9903F013FD0028D2
S31580804CC0C9DB01460DF12B02284603F045FD0028FD
S31580804CD0C1DB144B9DF82B200B98DB1B0C99DB10CA
S31580804CE007F1080AB34202D108F10108C4E75AF8ED
S31580804CF008CC944508D109935AF8043C08920791C8
S31580804D000690984706A80FC801360AF1080AE9E78F
S31580804D10054854F001FC01209DE700BFE01988809A
S31580804D20951E8680E01988809F1E868073B506468C
S31580804D30D0F8A43056F8A01F00F1C4050446284652
S31580804D40019302F0F9FF3146284601AA03F086F8DE
S31580804D5038B9019B2BB12A462046D4F8A01003F09F
S31580804D6043FA02B070BD000010B50446014605487E
S31580804D7054F0D2FB2046BDE810400021024A52F012
S31580804D80C3B900BF4ACC8680C804878000B58FB0FF
S31580804D9005AA54F0F1FD059B099A0293069B0A9910
S31580804DA00193079B03480093089B54F0B5FB0FB093
S31580804DB05DF804FB56CC86802DE9F341044646484F
S31580804DC015461F4636F08AFF80462046FFF71DFE31
S31580804DD0022876D14FF0FF31204604F0A3FA18B12D
S31580804DE03E4817F098FA0EE0002D70D17FB13B785F
S31580804DF06BB13946204604F0D5FA051E17DA394656
S31580804E00374854F089FB012002B0BDE8F08100214B
S31580804E10204604F0C7FA051E09DA002FEFD1314902
S31580804E20204648F063FF011E18DA2F48D9E7B8F18B
S31580804E30000F0CD10023294620462C4A04F0FEFA26
S31580804E40061E1CDA002FEAD039462948D9E729463A
S31580804E50204605F049F90028ECD0D4E70023204687
S31580804E60244A48F091FE05460028DED02946204611
S31580804E7003F038FC061E02DA29461F48C1E706225F
S31580804E803146204604F02EFA08B91C48A9E7B8F1C5
S31580804E90000F06D03146204604F092F908B91848AA
S31580804EA09FE76A463146204601AB03F0E7FC08B1AE
S31580804EB0144896E7089B009A1A60019A099B1A60A3
S31580804EC0A2E7114817F027FA4FF0FF309CE72B783E
S31580804ED0002BA4D0CAE700BFCD838680D1F8868098
S31580804EE04ED7868085D786808DD786803C32878050
S31580804EF068D78680051E8780A8D78680C6D7868015
S31580804F00D9D78680E8D786800DD886800346074A9B
S31580804F10406C904201D11868704728B99A6C1AB94A
S31580804F201021034836F0CCBE704700BF0080001049
S31580804F30D0DC86800146082208B5034853F057FBAB
S31580804F40B0FA80F0400908BD9DDC86800146082243
S31580804F5008B5034853F04BFBB0FA80F0400908BD92
S31580804F6094DC86802DE9F3410E461546044600B1D1
S31580804F703AB9664854F0D0FA0027384602B0BDE880
S31580804F80F081FFF7E3FF074618B9614854F0C4FA09
S31580804F90F3E794F8292094F8283043EA022394F89A
S31580804FA02A2043EA024394F82B2043EA0263022BA9
S31580804FB040F2BA800EB95748DCE73046FFF7BAFF31
S31580804FC0074608B95448E1E704F12C032B63A36AAA
S31580804FD000221021AB65514836F072FE04F5805C64
S31580804FE0E864C5F800C0A2684D486A60E16802F648
S31580804FF0FF72A9606961E368024003F6FF7303402C
S315808050001344A26A6344032A81BFD4F82C2602F60D
S31580805010FF7202409B181B1BEB6506F11C036B63BA
S31580805020D6F81C386B6506F50263AB6333696B64AF
S315808050307369AB64D6F838382B65D6F84C08286403
S31580805040F268B36932445BB1EA60B3692B610B4421
S31580805050AB60F168B3690B44013B49420B401A440B
S315808050602A62D6F834386B62D6F80CC0D6F84048B7
S3158080507063446444CCF10001013C013B0B400C400D
S315808050801C441444EC63D6F84C3853B10090002C01
S3158080509039D080B900232A6C1344AA682B641A44B9
S315808050A0AA60F268296C531E0B44524213409B1BA4
S315808050B023442B6661E700EB04080C221949A8F18A
S315808050C00C0053F0B9F90028E4D0042269464046A2
S315808050D0FCF796FB00231A46009999420FD10192DC
S315808050E004220DEB020108EB0200FCF789FB0C22FF
S315808050F00C4908F10800FCF783FB1423CBE7E05CBE
S3158080510001330244E9E74FF0FF33C4E74D108680D0
S315808051107410868091108680CB10868024DD868070
S3158080512000F0FFFFEF10868004F13003AB6304F15B
S3158080513040032B63627B237B43EA0223A27B43EA81
S315808051400243E27B43EA02636B64627D237D43EAAA
S315808051500223A27D43EA0243E27D43EA0263AB6493
S3158080516094F8292094F8283043EA022394F82A2058
S3158080517043EA024394F82B2043EA0263AB6594F8B2
S31580805180752694F8743643EA022394F8762643EAA1
S31580805190024394F8772643EA02632B6594F8253098
S315808051A094F8242042EA032294F8263042EA034285
S315808051B094F8273042EA036222442A60617A237A0D
S315808051C043EA0123A17A43EA0143E17A43EA016310
S315808051D06B6094F8241094F82530607A41EA032134
S315808051E094F8263041EA034194F8273041EA0361F6
S315808051F0237A43EA0023A07A43EA0043E07A43EAAB
S3158080520000630B44013B49420B401344EB64617C51
S31580805210227C42EA0122A17C42EA0142E17C42EA86
S315808052200162AA6094F8252094F82410607C41EA73
S31580805230022194F8262041EA024194F8272041EA07
S315808052400261227C42EA0022A07C42EA0042E07C23
S3158080525042EA00620A44013A49420A401A44AA61F3
S31580805260617E237E43EA0123A17E43EA0143E17E78
S3158080527043EA0163EB6194F8253094F8241041EA7F
S31580805280032194F8263041EA034194F8273041EA95
S315808052900361237E607E43EA0023A07E43EA004347
S315808052A0E07E43EA00630B44013B49420B40134452
S315808052B094F8291094F8282042EA012294F82A103A
S315808052C042EA014294F82B1052EA016271D0AB62B5
S315808052D094F8611694F8602642EA012294F8621660
S315808052E042EA014294F8631642EA0162EA6294F8DD
S315808052F0252094F8241094F8610641EA022194F8D6
S31580805300262041EA024194F8272041EA026194F8F6
S31580805310602642EA002294F8620642EA004294F8C5
S31580805320630642EA00620A44013A49420A401344CB
S3158080533094F8291094F8282042EA012294F82A10B9
S3158080534042EA014294F82B1042EA0162012A30D95E
S315808053502B6294F8711694F8702642EA012294F8AA
S31580805360721642EA014294F8731642EA01626A62D0
S3158080537094F8252094F8241094F8710641EA022145
S3158080538094F8262041EA024194F8272041EA026176
S3158080539094F8702642EA002294F8720642EA004225
S315808053A094F8730642EA00620A44013A49420A4006
S315808053B013441B1BEB65E0E52DE9F04104460F465F
S315808053C09AB06422002101A81E46209DFCF7C8F968
S315808053D03946204601AAFFF7C5FD002878D001A866
S315808053E0FFF794FD3D4C8046102220460F99019F01
S315808053F053F047F800232046237453F03AF818B1C7
S315808054002146374854F088F8029A414602F2FF32A4
S315808054103448920A54F080F80D990C7834B1324829
S3158080542054F07AF80D9853F024F804460E9931B1E9
S315808054302E4854F071F80E9853F01BF804442C488B
S3158080544036F0C4FB804610B153F013F80444A01C98
S3158080545017F042FA044638B9264816F05CFF6FF09A
S315808054600B001AB0BDE8F08100230370B8F1000FFD
S3158080547006D0414652F09EFF20461F4952F0AEFF2D
S315808054800D990B7813B1204652F0A8FF0E9B3BB145
S315808054901949204652F0A2FF20460E9952F09EFF6F
S315808054A02146134836F042FB3EB1144B3A689A4205
S315808054B014BF019B07F14003336065B10F4B3A6897
S315808054C000209A420ABFFB68029B1BBA2B60C8E702
S315808054D06FF01500C5E72846C3E700BFEC278880B4
S315808054E0B7118680D1118680F61186800F128680CC
S315808054F0FA6686802E128680F686878027051956DC
S31580805500F8B504460E461746FFF720FD054620B9B6
S31580805510514854F001F82846F8BD94F8292094F82B
S31580805520283043EA022394F82A2043EA024394F8F7
S315808055302B2043EA0263012B04D8484853F0ECFFC2
S315808055400025E8E7022B66D194F8712694F87036A8
S3158080555043EA022394F8722643EA024394F8732638
S3158080556053EA026301D13E48E8E794F8253094F8FF
S3158080557009C094F82400227A40EA032042EA0C2269
S3158080558094F8263094F80AC040EA034042EA0C42F6
S3158080559094F8273094F80BC040EA036042EA0C62A4
S315808055A002444142013A03190A4094F811C01A44D0
S315808055B0237C43EA0C2394F812C043EA0C4394F884
S315808055C013C043EA0C630344013B0B4094F819C033
S315808055D01344227E42EA0C2294F81AC042EA0C4294
S315808055E094F81BC042EA0C620244013A0A4094F85D
S315808055F061C61A4494F8603643EA0C2394F862C6EE
S3158080560043EA0C4394F863C643EA0C630344013B44
S315808056100B4013443B6094F8292094F8283043EA61
S31580805620022394F82A2043EA024394F82B2043EA03
S315808056300263022B7FF66FAFD6F83438002B92D078
S31580805640F268B369911923B11344013B52421340E6
S31580805650194439605FE700BF4B118680721186805E
S31580805660A111868000B59BB001AAFFF77BFC30B183
S31580805670179B022B06D818981BB05DF804FB6FF039
S315808056801500F9E70020F7E700B59BB001AAFFF780
S3158080569069FC28B101A8FFF739FC1BB05DF804FBD3
S315808056A06FF01500F9E7000000B59BB001AAFFF7FF
S315808056B059FC88B101980B4A0368934203D1C07F15
S315808056C01BB05DF804FB084A934208D004211BB0C6
S315808056D05DF804EBFEF7F8BF6FF01500F0E7052064
S315808056E0EEE700BF2705195604224D182DE9F045AF
S315808056F004460D469BB00021904601A864221F4631
S31580805700FCF72EF82946204601AAFFF72BFC70B3BA
S31580805710039C3CB94FF0FF303C60C8F800401BB01A
S31580805720BDE8F085179B149D022B14D9059E04999C
S3158080573032462846FCF764F8DDF818A02E44524697
S3158080574029463046FCF75CF8119A22B1109906EB0F
S315808057500A00FCF755F804F2FF3229460548920A7A
S3158080576053F0DAFEC8F8005000203C60D7E76FF02F
S315808057701500D4E76112868070B59AB00E461446BD
S31580805780002101AAFFF7EEFBC0B1179B022B06D939
S315808057900C4853F0C1FE6FF05E001AB070BD089D54
S315808057A025B925604FF0FF303560F6E707990648C2
S315808057B0316053F0B1FE00202560EEE76FF0150072
S315808057C0EBE700BF89128680D01286802DE9F04D66
S315808057D09AB00C461746B1F1FF3F08BF002101AA57
S315808057E005469846DDF888A0FFF7BCFB0646B0B331
S315808057F021466A462846FFF783FE009C204600F0B5
S31580805800D9F9054640B153464246394620461AB0B4
S31580805810BDE8F04D00F0D6B90A9B04EB030BA34597
S3158080582005D82A463946114853F076FE07E0204649
S3158080583047F01EFE28B129460D4853F06DFE00269E
S315808058400DE06368BD421BBA0DD1BAF1000F01D05D
S31580805850CAF80030B8F1000F01D0C8F80040304651
S315808058601AB0BDE8F08D1C440135D8E724118680B6
S31580805870FC10868030B590F8292090F82830044630
S3158080588043EA022390F82A2085B043EA024390F8BF
S315808058902B2043EA0263022B05D9B34805B0BDE8C5
S315808058A0304053F039BE90F82D3090F82C50427AA3
S315808058B045EA032590F82E30AC4945EA034590F8B1
